:020000040000fa
:080000000002040000000000f2
:020000040000fa
:04000800c40600002a
:020000040000fa
:04000c004a050000a1
:020000040000fa
:04001000c406000022
:020000040000fa
:040014005205000091
:020000040000fa
:04001800c40600001a
:020000040000fa
:04001c00c406000016
:020000040000fa
:04002000c406000012
:020000040000fa
:04002400c40600000e
:020000040000fa
:040028009c05000033
:020000040000fa
:04002c00c406000006
:020000040000fa
:04003000c406000002
:020000040000fa
:040034005a05000069
:020000040000fa
:04003800c4060000fa
:020000040000fa
:04003c00c4060000f6
:020000040000fa
:04004000c4060000f2
:020000040000fa
:04004400c4060000ee
:020000040000fa
:04004800c4060000ea
:020000040000fa
:04004c00c4060000e6
:020000040000fa
:04005000c4060000e2
:020000040000fa
:04005400c4060000de
:020000040000fa
:04005800c4060000da
:020000040000fa
:04005c00c4060000d6
:020000040000fa
:04006000c4060000d2
:020000040000fa
:04006400c4060000ce
:020000040000fa
:04006800c4060000ca
:020000040000fa
:04006c00fa02000094
:020000040000fa
:04007000c4060000c2
:020000040000fa
:04007400ce050000b5
:020000040000fa
:04007800a4050000db
:020000040000fa
:04007c00c4060000b6
:020000040000fa
:04008000c4060000b2
:020000040000fa
:04008400c4060000ae
:020000040000fa
:04008800c4060000aa
:020000040000fa
:04008c00c4060000a6
:020000040000fa
:04009000c4060000a2
:020000040000fa
:0400940088050000db
:020000040000fa
:04009800c40600009a
:020000040000fa
:04009c00ac050000af
:020000040000fa
:0400a000c406000092
:020000040000fa
:0400a400c40600008e
:020000040000fa
:0400a800c40600008a
:020000040000fa
:0400ac00c406000086
:020000040000fa
:0400b000c406000082
:020000040000fa
:0400b400c40600007e
:020000040000fa
:0400b800c40600007a
:020000040000fa
:0400bc00c406000076
:020000040000fa
:0400c000c406000072
:020000040000fa
:0400c400c40600006e
:020000040000fa
:0400c800c40600006a
:020000040000fa
:0400cc00c406000066
:020000040000fa
:0400d000c406000062
:020000040000fa
:0400d400c40600005e
:020000040000fa
:0400d800c40600005a
:020000040000fa
:0400dc00c406000056
:020000040000fa
:0400e000c406000052
:020000040000fa
:0400e400c40600004e
:020000040000fa
:0400e800c40600004a
:020000040000fa
:0400ec00c406000046
:020000040000fa
:0400f000c406000042
:020000040000fa
:0400f400c40600003e
:020000040000fa
:0400f800c40600003a
:020000040000fa
:0400fc00c406000036
:020000040000fa
:04010000c406000031
:020000040000fa
:04010400c40600002d
:020000040000fa
:04010800c406000029
:020000040000fa
:04010c00c406000025
:020000040000fa
:04011000c406000021
:020000040000fa
:04011400c40600001d
:020000040000fa
:04011800c406000019
:020000040000fa
:04011c00c406000015
:020000040000fa
:04012000c406000011
:020000040000fa
:04012400c40600000d
:020000040000fa
:04012800c406000009
:020000040000fa
:04012c00c406000005
:020000040000fa
:04013000c406000001
:020000040000fa
:04013400c4060000fd
:020000040000fa
:04013800c4060000f9
:020000040000fa
:04013c00c4060000f5
:020000040000fa
:04014000c4060000f1
:020000040000fa
:04014400c4060000ed
:020000040000fa
:04014800c4060000e9
:020000040000fa
:04014c00c4060000e5
:020000040000fa
:04015000c4060000e1
:020000040000fa
:04015400c4060000dd
:020000040000fa
:04015800c4060000d9
:020000040000fa
:04015c00c4060000d5
:020000040000fa
:04016000c4060000d1
:020000040000fa
:04016400c4060000cd
:020000040000fa
:04016800c4060000c9
:020000040000fa
:04016c00c4060000c5
:020000040000fa
:04017000c4060000c1
:020000040000fa
:04017400c4060000bd
:020000040000fa
:04017800c4060000b9
:020000040000fa
:04017c00c4060000b5
:020000040000fa
:04018000c4060000b1
:020000040000fa
:04018400c4060000ad
:020000040000fa
:04018800c4060000a9
:020000040000fa
:04018c00c4060000a5
:020000040000fa
:04019000c4060000a1
:020000040000fa
:04019400c40600009d
:020000040000fa
:04019800c406000099
:020000040000fa
:04019c00c406000095
:020000040000fa
:0401a000c406000091
:020000040000fa
:0401a400c40600008d
:020000040000fa
:0401a800c406000089
:020000040000fa
:0401ac00c406000085
:020000040000fa
:0401b000c406000081
:020000040000fa
:0401b400c40600007d
:020000040000fa
:0401b800c406000079
:020000040000fa
:0401bc00c406000075
:020000040000fa
:0401c000c406000071
:020000040000fa
:0401c400c40600006d
:020000040000fa
:0401c800c406000069
:020000040000fa
:0401cc00c406000065
:020000040000fa
:0401d000c406000061
:020000040000fa
:0401d400c40600005d
:020000040000fa
:0401d800c406000059
:020000040000fa
:0401dc00c406000055
:020000040000fa
:0401e000c406000051
:020000040000fa
:0401e400c40600004d
:020000040000fa
:0401e800c406000049
:020000040000fa
:0401ec00c406000045
:020000040000fa
:0401f000c406000041
:020000040000fa
:0401f400c40600003d
:020000040000fa
:0401f800c406000039
:020000040000fa
:0401fc00c406000035
:020000040000fa
:04020000c406000030
:020000040000fa
:04020400c40600002c
:020000040000fa
:04020800c406000028
:020000040000fa
:04020c00c406000024
:020000040000fa
:04021000c406000020
:020000040000fa
:04021400c40600001c
:020000040000fa
:04021800c406000018
:020000040000fa
:04021c00c406000014
:020000040000fa
:04022000c406000010
:020000040000fa
:04022400c40600000c
:020000040000fa
:04022800c406000008
:020000040000fa
:04022c00c406000004
:020000040000fa
:04023000c406000000
:020000040000fa
:04023400c4060000fc
:020000040000fa
:04023800c4060000f8
:020000040000fa
:04023c00c4060000f4
:020000040000fa
:04024000c4060000f0
:020000040000fa
:04024400c4060000ec
:020000040000fa
:04024800c4060000e8
:020000040000fa
:04024c00c4060000e4
:020000040000fa
:04025000c4060000e0
:020000040000fa
:04025400c4060000dc
:020000040000fa
:04025800c4060000d8
:020000040000fa
:04025c00c4060000d4
:020000040000fa
:04026000c4060000d0
:020000040000fa
:04026400c4060000cc
:020000040000fa
:04026800c4060000c8
:020000040000fa
:04026c00c4060000c4
:020000040000fa
:04027000c4060000c0
:020000040000fa
:04027400c4060000bc
:020000040000fa
:04027800c4060000b8
:020000040000fa
:04027c00c4060000b4
:020000040000fa
:04028000c4060000b0
:020000040000fa
:04028400c4060000ac
:020000040000fa
:04028800c4060000a8
:020000040000fa
:04028c00c4060000a4
:020000040000fa
:04029000c4060000a0
:020000040000fa
:04029400c40600009c
:020000040000fa
:04029800c406000098
:020000040000fa
:04029c00c406000094
:020000040000fa
:0402a000c406000090
:020000040000fa
:0402a400c40600008c
:020000040000fa
:0402a800c406000088
:020000040000fa
:0402ac00c406000084
:020000040000fa
:0402b000c406000080
:020000040000fa
:0402b400c40600007c
:020000040000fa
:0402b800c406000078
:020000040000fa
:0402bc00c406000074
:020000040000fa
:0402c000c406000070
:020000040000fa
:0402c400c40600006c
:020000040000fa
:0402c800c406000068
:020000040000fa
:0402cc00c406000064
:020000040000fa
:0402d000c406000060
:020000040000fa
:0402d400c40600005c
:020000040000fa
:0402d800c406000058
:020000040000fa
:0402dc00c406000054
:020000040000fa
:0402e000c406000050
:020000040000fa
:0402e400c40600004c
:020000040000fa
:0402e800c406000048
:020000040000fa
:0402ec00c406000044
:020000040000fa
:0402f000c406000040
:020000040000fa
:0402f400c40600003c
:020000040000fa
:0402f800c406000038
:020000040000fa
:0402fc00c406000034
:020000040000fa
:04030000c40600002f
:020000040000fa
:04030400c40600002b
:020000040000fa
:04030800c406000027
:020000040000fa
:04030c00c406000023
:020000040000fa
:04031000c40600001f
:020000040000fa
:100400004f1321000eff24000e01880000000000a1
:10041000000020000000e000020032000001200087
:100420002002880014000700590207000000e000c5
:1004300003003a0020f320000100200002003700f2
:100440000000200001002000810f70000100320038
:100450000f000700000020000000e0000200320052
:100460000000020000000000e60a02000000000098
:100470000040da000000fe00200020000000e00044
:1004800002003200100020009001880000000600e9
:10049000a1028800800478000000eb001f003700f4
:1004a000e284440054a0b4009905ba00e2844400f8
:1004b00054a0b4009906ba00e284440054a0b400e9
:1004c0000006eb00476fde00fd07b200ae018800ba
:1004d000636ce10003003a000ad801000000eb0061
:1004e0000e003700606ce10008003a00004deb00a0
:1004f0000a05e800020039003420ec000af0a000f0
:100500008b05e900f9ff3e00040037006168e10057
:10051000010032000086eb000b00070019c7ba008b
:100520000e04e0001905ba0003003a000a00e000da
:10053000dbff3a0000000600fe07b200ae028800b2
:100540008a047800f5ff37000cd0a300e20f4d00bd
:100550001c00390089027800354dba000a05e80010
:10056000020039003420ec000af0a0008b05e900fd
:100570000f003200254dba000a05e80002003900dc
:100580003420ec000af0a0008b05e90008003200de
:100590000c00e0000600320015cdba000a05e800a4
:1005a000020039003420ec000af0a0008b05e900bd
:1005b0008984e80054a0b4000b00e000e2ff3a0098
:1005c000000006009902ba00055d78008b05e9007d
:1005d000f7ff3200c82ade00055d78008b05e900d0
:1005e000f3ff32000c00e000f1ff320019ddba0029
:1005f000eeff37003600f800809fbe00829fbe00ed
:10060000849fbe00869fbe000000fa000228a90059
:100610002110800000082000008060000000e00041
:100620000800320004e2a9002c30ef009081800025
:10063000200090008000eb00010878003230ef00cd
:100640000d013700608180008000eb00b2002000c7
:1006500003002000820f5000838f5800fc003e00f2
:10066000000601000b003700390037007500370025
:100670009c003700f3003700c8003700d90037006e
:10068000f0003700db003700f1003700340037009e
:1006900050003700400221002000900062006000fe
:1006a0000000e000f3003a0040022100100090003a
:1006b00090818800400221001000900010407800d6
:1006c0002ef0b700400221001000900010009000b2
:1006d000808188004002210010009000e600400068
:1006e000400221001100980040022100900090007b
:1006f00080122100808f500003003a004002210048
:10070000211221001100980040022100a000900059
:100710000100a100210098004002210090009000fb
:100720004002210010007800808f500004003a0041
:1007300040022100a00090000110a00021009800bc
:100740000002a8002000200060818800ca00370055
:100750000022a8002000200060818800c600370029
:100760002110800000002800008060000000e000f0
:100770000800320040022100604090008040e80004
:10078000400221006140980040002000fa04070068
:10079000b9003700a08180008000d100f00f200058
:1007a0000080600060108800a0818000610060000f
:1007b000004078000004e00003003200b000200098
:1007c00060818800ac003700300020006081880024
:1007d000a900370021108000000028000080600080
:1007e0000000e0000800320040022100604090005c
:1007f0008040e80040022100614098004000200055
:10080000dd0407009c0037000022a800a0818000c2
:100810004800de00e6006000000f200001007000cc
:10082000a0818800a08180000000a000a081880035
:1008300010c0b30036f0b7002000200060818800af
:100840008d00370036d0bf00e14f50000a00320063
:100850008081800010007800a08188008081800065
:1008600020009000c081880080818000204090009e
:100870003af0b700010037003670ef00a181800028
:10088000f00f2000808f500009003600a08180000a
:100890004800de00e6006000000f2000010070004c
:1008a00060108800a000200060818800720037007e
:1008b000a081800060108800a0818000610060003d
:1008c000004078000004e0000300320050002000e7
:1008d0006081880068003700300020006081880057
:1008e00065003700211080000000280000806000b3
:1008f0000000e0000900320040022100604090004a
:100900008040e800400221006140980005e2a90013
:100910005000200098040700570037003ad0bf006d
:100920008080fb008100e900cf08de008140780074
:100930000040e9003af0b7000104e0001000320086
:100940008081800066004000808188002ed0bf003a
:100950000040e9002ef0b7002ed0bf000004e000f8
:1009600003003a0020002000830407004200370003
:100970000022a80020002000608188003e0037008f
:10098000c0818000904078008180fb006110880069
:100990000000e800c0818800370037002110800087
:1009a00000002800008060000000e0000900320024
:1009b00040022100604090008040e8004002210099
:1009c00061409800400020006b04070005e2a90088
:1009d000290037000062a8008000200060818800a4
:1009e0002500370080002000608188000062a80098
:1009f00021003700c08180007110800081407800a4
:100a0000014878000000e800c08188003ad0bf00ab
:100a10000040e9003af0b7003ad0bf000004e0001f
:100a20000400320000a2a90060002000608188005c
:100a30000200370000a2a8003e0407000082a800c0
:100a40000d003700200020004b0407000a0037008b
:100a500040022100604090008040e80040022100f8
:100a6000614098006000200043040700000000007f
:100a700001003700000000000080fa004f03be00b4
:100a80004f02be004f01be004f00be003600f9000d
:100a9000004006000000fa000000fe000080fa009e
:100aa000004006000000fa000000fe000080fa008e
:100ab000004006003600f800809fbe00829fbe0006
:100ac000849fbe00869fbe000000fa0021088000bf
:100ad00000002800008060000000e00003003200f9
:100ae00050e6200001002000c90507000021ef00aa
:100af0000068a9000080fa004f03be004f02be004c
:100b00004f01be004f00be003600f9000040060055
:100b1000801f78000000fa0019d0bf000040e800f4
:100b200019f0b7001421ef000368a9000080fa0053
:100b30004f007800004006000000fa000008a900fd
:100b40000080fa00004006000000fa000288a900b8
:100b50000080fa00004006003600f800809fbe00ca
:100b6000829fbe00849fbe00869fbe000000fa00e8
:100b700050e6200001002000a505070003a8a900f9
:100b80000080fa004f03be004f02be004f01be00be
:100b90004f00be003600f900004006003600f800a5
:100ba000809fbe00829fbe00849fbe00869fbe00c5
:100bb0000200fa0040f729005100200094050700c8
:100bc00040062000000f7800b070800062006000d6
:100bd0000000e0001c003a00008080000000e000ff
:100be00019003a001e30ef000600370020ff2800f1
:100bf0000100200086050700f08080000000e8006a
:100c0000f0808800b0708000620060000000e000aa
:100c100003003a00f08080009e0f5000f3ff39007f
:100c2000f0808000800078001e80e900808f5000f6
:100c30000500360010002000008088001cd0bf0096
:100c40000040e8001cf0b7001070800070006000e9
:100c50000000e0001c003a00108080000000e0006e
:100c600019003a001e30ef000600370020ff280070
:100c70000100200066050700f08080000000e80009
:100c8000f080880010708000700060000000e000bc
:100c900003003a00f08080009e0f5000f3ff3900ff
:100ca000f0808000800078001e80e900808f500076
:100cb0000500360010002000108088001dd0bf0005
:100cc0000040e8001df0b700b070800062006000d6
:100cd0000000e000040032000030ef0020ff280098
:100ce000010020004a0507001070800070006000bd
:100cf0000000e000040032000230ef0020ff280076
:100d00000100200042050700b07080007000600004
:100d10000000e00014003a001e30ef00060037002b
:100d200040f729005100200039050700f0808000bd
:100d30000000e800f0808800b07080007000600063
:100d40000000e00003003a00f0808000f30f500044
:100d5000f3ff3400f0808000f20f500002003400f6
:100d600010002000208088000268a9000080fa009e
:100d70004f03be004f02be004f01be004f00be0039
:100d80003600f900004006000040da000000fe00d6
:100d90000000050003f0a200889fbe008a9fbe00ed
:100da0008c1f7800b9000700c00033006450e100d8
:100db0004f0032006420e1005200320003826c00d8
:100dc00007003b000905d0000306d000820f540045
:100dd0000c065d0002003900020032008901780033
:100de000030678008582550004003d000003fd00e5
:100df0008103fd008502ea008b854200840f7200aa
:100e000002003b0060001000e08018006011b80094
:100e10000005eb007a28e1000a003900060078009e
:100e2000c75ddd00f707b200878075002d00370031
:100e3000828171000a017800610560008180d10023
:100e40000080d3008502e900f9ff3b000604400062
:100e50008784480002003b0060041400e0841c000a
:100e60000988a300070032008a8171008281710025
:100e7000610164008904d1000884d3008b05e80077
:100e8000170037000978a30013003a000b00e000b8
:100e9000130034008b05e9000804440089844c00e9
:100ea0000a4474000978a3000d003a000b00e0002a
:100eb000070034008b05e9000804440089844c00d5
:100ec00001003a000b0020000978a300f7ff320070
:100ed0000001eb0002003700828171000a017800f6
:100ee0002f0007000cf0a70001f0a00078003700e9
:100ef0006420e10002003a00838f6c007800330028
:100f00000801be000200be00710037000001be00f3
:100f1000490007000470a70003f0a10003f8a30034
:100f200013003a006509b1001000320009003500d5
:100f30006928e100020035000100280000000500da
:100f400000004000818048008502e900fcff3a0073
:100f500000000600f88f4200050035008100d10036
:100f60000080d3008502e800fcff3a000000060084
:100f70008000eb00000005006011b800b6003700eb
:100f80000001eb008d000700040032000200200089
:100f900003f8230001f0a7007eff07000000060011
:100fa00081002000618055000b003d000b002000f7
:100fb00061fe2f000100e1001d00340082817100fc
:100fc000610164008904d1000884d3000000e800b6
:100fd000faff3a0071002000610064000300700015
:100fe000020060000900320061044400e0844c000b
:100ff0000988a500050032008b05e8006808e100bb
:1010000002003a008904d1000884d300f20f2000c6
:101010000258e10005003d00c75ddd00f907b200a0
:101020008980750008007800000006000bf8270092
:101030008b00780000000500c70ade00f107b2004f
:10104000f50fb20008003200e1cf4200020032008a
:101050000170a00024000500810f70000100320023
:101060000408050044000500810f700002003a00ea
:10107000140005008502e9000000400081c048001e
:10108000fcff3b000170a000240005000004be002e
:10109000e9ff07000003be000405be000200be0019
:1010a000e5ff0700844f7500000006000200be0047
:1010b0006450e100050036006420e10002003600c3
:1010c0000968a30001003a000800be000160a0000a
:1010d0004f0678004f05be004f04be00000006001a
:1010e000f0ff2f00f1ff2700f9ff3700889fbe00b7
:1010f0008a9fbe008c1f7800e4ff0700ebff3300df
:1011000003866c006450e100240032006420e1009a
:10111000270032006150e100220032006120e1002e
:10112000210032008b854200eb07b1000134b8008a
:10113000003ab8000804420089844a00013ab80025
:101140000030b8008880400009014a0004003300e4
:101150000000400081804800020149008b05e90041
:10116000c909dd0083017000010032001300200076
:10117000c814de004814dd004709de001200b2008a
:10118000c808de000884700085ff070001f0a10098
:101190000cf0a70001f0a000cdff37006120e100b6
:1011a000cfff32000801be000200be00f7ff37008b
:1011b0006150e100fcff3a00c9ff3700889fbe0084
:1011c0008a9fbe000003be009bff070085057800d4
:1011d00082815200020020006220e10004003a00f7
:1011e000f307b100040035007718e1000400350072
:1011f0000600be00140037006000b8000f00370082
:10120000f50f2000faff2f008502d1000a85d300d8
:101210008301e900fcff3b0081846200000465005b
:10122000890f7400f2ff32008582ea000a85ea0025
:10123000818462000004650059ff070007f0a700e1
:1012400001f0a0000081eb000200e0004f05be00ad
:101250004f04be0000000600889fbe008a9fbe00ab
:1012600000827000040271000482710026003200c6
:101270000004be000200be006011b8006b0920002f
:10128000950220000182cf000a0039000541b1001b
:101290000082cf00070039000541b1000982cf006c
:1012a000040039000541b1000882cf000100390077
:1012b0000541b10005425200120032000a003b0015
:1012c00082817100610164008100d1000080d3003f
:1012d0008984d3000884d3008b05e8000442e80029
:1012e000f7ff3a00070037000804440089844c00e7
:1012f00000004800818048008b05e9000442e900b5
:10130000f9ff3a0026ff07004f05be004f04be005c
:0413100000000600d3
:020000040000fa
:101314000000fa0060fd2a0011002000bb03070052
:1013240060828000e30421000001780021c0b30042
:10133400d00521001c02070060fd2a0011002000d6
:10134400b203070060828000e304210000017800fa
:1013540081c0b300f0052100130207000080fa00e9
:10136400000006000200fa00889fbe00000f78000b
:101374004270ef004370ef004470ef004570ef00df
:101384004630ef009e007800518288005082800031
:101394000000e0001600320051828000d0cc2c0006
:1013a4000008b8004308de00308288001e00780080
:1013b4008000eb00effe07000004be0030828000d6
:1013c4008000eb00ebfe0700ecfe070002002000ab
:1013d4000312240044ff07000001be000800be0001
:1013e4006bfe0700c8fe07000040780042f0b7001b
:1013f400308280008000eb00defe0700dffe070085
:10140400c1fe0700000078005082880050828000ee
:101414000000e0001600320051828000d0cc2c0085
:101424000008b8004308de00308288005082800043
:101434008000eb00cffe07000004be003082800075
:101444008000eb00cbfe0700ccfe0700020020006a
:101454000312240024ff07000001be000800be00a0
:101464004bfe0700a8fe07000040780043f0b700d9
:10147400308280008000eb00befe0700bffe070044
:10148400a1fe07000000780050828800508280008e
:101494000000e0001600320051828000d0cc2c0005
:1014a4000008b8004308de003082880050828000c3
:1014b4008000eb00affe07000004be003082800015
:1014c4008000eb00abfe0700acfe0700020020002a
:1014d4000312240004ff07000001be000800be0040
:1014e4002bfe070088fe07000040780044f0b70098
:1014f400308280008000eb009efe07009ffe070004
:1015040081fe07000000780050828800508280002d
:101514000000e0001600320051828000d0cc2c0084
:101524000008b8004308de00308288005082800042
:101534008000eb008ffe07000004be0030828000b4
:101544008000eb008bfe07008cfe070002002000e9
:1015540003122400e4fe07000001be000800be00e0
:101564000bfe070068fe07000040780045f0b70056
:1015740042d0bf000043b00042f0b70043d0bf00e8
:101584000043b00043f0b70044d0bf000043b000b4
:1015940044f0b70045d0bf000043b00045f0b700a9
:1015a4004f04be000080fa00000006000000fa00ac
:1015b400b40207006000210030009000b080880071
:1015c4000080fa00000006000000fa00f50207009f
:1015d400c60207003401070080fc2300210020001c
:1015e4000a0307004aff070040d42100c10120007c
:1015f40006030700178ea80060828000e304210020
:101604000001780021c0b300e00921006601070051
:1016140080ee2300b1002000fc02070060828000fd
:10162400e30421000001780021c0b30090052100eb
:101634005d01070080ee2300b1002000f3020700e3
:1016440060828000e30421000001780071c0b300cf
:101654002005210054010700005127000107200044
:10166400ea02070060828000e304210000017800a0
:1016740021c0b300a00921004b01070080ee230024
:10168400b1002000e102070060828000e304210031
:101694000001780021c0b300c00921004201070005
:1016a400178ea900040ea80040f72900510020005d
:1016b400d6020700042ea800044ea900f400370047
:1016c40000808000e10f500008003a0017aea90026
:1016d400044ea80080a8230081032000cb02070049
:1016e400008180000000e8000081880010808000f4
:1016f400e10f500011003a0000808000e10f50001b
:1017040005003a00044ea9000030ef0080f92a00d9
:10171400810a2000bd020700026ea80017aea800cf
:10172400108180000000e80010818800044ea800a9
:1017340080a8230081032000b402070020808000d9
:101744000000e000bc003200108080000000e000d7
:1017540007003200e10f5000b5003a00026ea90004
:101764000230ef000030ef000430ef00b200370029
:101774001cd0bf000080fb00fafe070051042100ca
:1017840091407800700c2100014878004104210048
:1017940091407800800c2100014878003104210038
:1017a40091407800900c2100014878002104210028
:1017b40091407800a00c2100014878001dd0bf00a2
:1017c4000080fb00e7fe07005104210091407800ef
:1017d400600d210001487800410421009140780007
:1017e400700d2100014878003104210091407800f7
:1017f400800d2100014878002104210091407800e7
:10180400900d210001487800178ea80060828000a6
:10181400e30421000001780021c0b300e0092100a5
:10182400e100070080ee2300b100200077020700ea
:1018340060828000e304210000017800f1c0b3005d
:10184400c00b2100d800070080ee2300b100200067
:101854006e02070060828000e3042100000178002a
:1018640021c0b300b0052100cf00070080ee2300a3
:10187400b10020006502070060828000e3042100bb
:1018840000017800f1c0b300b00c2100c6000700cd
:1018940000512700010720005c0207001c2ea9004c
:1018a400088ea9001c8ea900cc0107003fff070089
:1018b400b08080008000eb00aefd0700a2c42000d1
:1018c4002304240008fe07008ffd070000007800b1
:1018d400b0808800e4010700b0808000a1fe07000a
:1018e4002104210091407800501121000148780022
:1018f4003104210091407800401121000148780012
:101904004104210091407800201121000148780011
:101914005104210091407800101121000148780001
:1019240060828000e30421000001780021c0b3003c
:10193400a00921009c00070080ee2300b1002000d4
:101944003202070060828000e30421000001780075
:10195400c1c0b300b01021009300070040fe210075
:10196400110020002902070060828000e3042100a6
:101974000001780021c0b300b00521008a000700ef
:1019840040fe21001100200020020700b1808000e9
:10199400f04a2000808f50000700360060828000eb
:1019a400e30421000001780051c0b300701121004c
:1019b4007d0007000600370060828000e3042100f8
:1019c4000001780051c0b300c01121007600070067
:1019d40000512700010720000c02070060828000ec
:1019e400e30421000001780021c0b300a009210014
:1019f4006d00070080ee2300b10020000302070001
:101a040060828000e30421000001780021c0b3005b
:101a1400c009210064000700178ea9000430ef00fc
:101a24001c2ea800088ea8001c8ea80002003700f7
:101a34000430ef000000000001818000c00320009a
:101a4400808f500003003400044ea9002030ef00c2
:101a54000030ef0011818000c0032000808f50000f
:101a640003003400044ea9002230ef000230ef00de
:101a7400008080000000e00005003a001080800033
:101a84000000e00002003a000040fe00044ea900fd
:101a94003cd0bf000004e00009ff32000000eb006e
:101aa4000080fa00000006000000fa004002210055
:101ab400211221001100980040022100211221006e
:101ac4000108780040022100a00090000110a0004d
:101ad4002100980040022100a00090000100a10014
:101ae40021009800400221008040eb0061409800f2
:101af40070002000501088000001280000108800a9
:101b04000422ef000228a9002228a8000080fa007d
:101b1400000006000200fa0040022100e0409000ac
:101b2400014f78001e4078000080fa000000060093
:101b34000000fa00808180006600400080818800f7
:101b44002ed0bf000040e9002ef0b7002ed0bf0019
:101b54000004e00003003a00400020006081880097
:101b64000200370010002000608188000080fa0025
:101b7400000006000200fa00000f78000042a800ee
:101b840090818000200090000000e00003003200fb
:101b940090818000200090001e0878002c30ef0017
:101ba4000080fa00000006000800fa00000f780028
:101bb400214798002207980033079800400221002b
:101bc40020009000610060000000e0000a003a007c
:101bd400ae0190002e4190009e007800e01221009a
:101be400770007003e019000e112210010c0b3000d
:101bf4001f000700030037003e0090008000eb0048
:101c0400010878000080fa00000006000800fa00cd
:101c1400000f7800214798002207980033079800a6
:101c24004002210020009000610060000000e000fc
:101c34000a003a00ae0190002e4190009e00780008
:101c440080122100460007003e019000811221000d
:101c540010c0b30006000700030037003e009000e8
:101c64008000eb00010878000080fa000000060004
:101c74000600fa00004f7800110798002207980028
:101c84004002210020009000610060000000e0009c
:101c94002e003a002e009000110020000108780068
:101ca40040022100100078009e009000110098006e
:101cb40040022100100078001e48780040022100f4
:101cc40010007800ae00900021009800400221002e
:101cd40010007800e600400040022100010878006e
:101ce400400221009000780080122100808f500073
:101cf40003003a004002210021122100010878006b
:101d040040022100a00090000110a10021009800d1
:101d14004002210090009000400221001000780051
:101d2400808f500004003a0040022100a00090007f
:101d34000100a00021009800608180000000e00004
:101d440005003a000228a800030037002e00900086
:101d54008000eb00010878000080fa000000060013
:101d64000800fa00000f7800110798004247980015
:101d7400330798003e009000000040008000780087
:101d84001e007800010878001e007800100078001a
:101d9400800078000100a0001e007800010878008f
:101da4001e007800ce409000214098001e0078006c
:101db4009e009000210098000080fa0000000600b8
:101dc4000800fa00000f78001107980042479800b5
:101dd400330798003e009000000040008000780027
:101de4001e007800010878001e007800ce409000a4
:101df400214098001e0078009e0090002100980069
:101e04000080fa00000006000000fa0040022100f1
:101e1400200090006200600000f0a7000000ea00cb
:101e24000000ea004f00de00004078000080fa0065
:101e3400000006000000fa0040022100200090008b
:101e44006100600000f0a7000000ea000000ea0062
:101e54004f00de00004078000080fa000000060019
:020000040000fa
:101e64005010000002000000820000000100000089
:101e74000010000024000000800000002211000077
:101e84001200000080000000241000001800000070
:101e94008000000052100000d0000000820000000a
:101ea400404f47004f5845000000850000c0000027
:101eb40038003900147950006c0c010040414c008a
:101ec40045525400452049004e50550054203100dd
:101ed40020214000414c45005254450020494e0009
:101ee4005055540020322000214041004c455200fe
:101ef40054452000494e50005554310026322100eb
:101f04000001000008000c0040494e0050555400e8
:101f1400313d2000202020006d564000494e5000e5
:101f2400555432003d20200020206d0056404300cf
:101f34006f6d70007465750072313a0020202000c6
:101f4400204043006f6d70007465750072323a0072
:101f5400203020002040540075726e00696e6700c6
:101f6400204f460046204f00555431004054750020
:101f7400726e69006e6720004f464600204f550080
:101f84005432400053544f00503a48006f6c640080
:101f9400204254004e31400042415400543a200043
:101fa400202e200020564000474f4f0044404c0054
:101fb4004f572000000000003c10000010000000fb
:101fc400800000004c1000000400000082000000ab
:0c1fd4003e0001000000000000000000c2
:020000040000fa
:101fe0000000fa00222eef0010718000707088004f
:101ff000220ea800222ea800224ea800226ea800c1
:10200000c00020000019880000302000101988004e
:10201000f0002000201988003223ef002e23ef006b
:102020003023ef004119800000fc2f000080600089
:102030005000b3004019880028e3a9002663a900d6
:102040002683a9003119800090ff2f0000806000d6
:102050003019880021e3a80090042000010020002e
:102060006b0007000080fa00000006000000fa0084
:1020700021e3a9000e8ea900222ea900220ea9009c
:102080000080fa00000006000000fa00001720009f
:10209000010020005e0007002023a90000000000ce
:1020a0000140800000002200008060000000e0008d
:1020b000fbff320001a8a900011880006000210088
:1020c00001087800111880006000210011009800bc
:1020d0002118800060002100210098003118800044
:1020e00060002100310098000080fa000000060026
:1020f0000000fa00c208a8000142800080ff2f0003
:10210000008060000000a000004288000008a900d4
:102110002008a900c228a9005142800080ff2f009a
:10212000008060000000a000504288000288a900e2
:102130002288a90001428000f0ff28000080600092
:1021400000c0a000004288000068a9002068a90023
:1021500061428000f0ff28000080600000c0a00005
:10216000604288000368a9002368a900c248a8004b
:1021700071428000f0f82f00008060000040a00055
:102180007042880003a8a90023a8a9001c2ea8005b
:10219000088ea8001c8ea8002268a8000268a9006a
:1021a0000080fa00000006000000fa000e2eef008a
:1021b000222eef00000ea900002ea900004ea9005b
:1021c000006ea900008ea800140ea800142ea8000e
:1021d000144ea800146ea800148ea80014aea90016
:1021e00014cea90014eea900150ea900152ea80002
:1021f000154ea900156ea900158ea90015aea900ef
:1022000015cea90015eea8000080fa000000060017
:020000040000fa
:10221000f03fb1000180b10006003500ee03090077
:1022200000000000403fb1000180b100fbff3d0015
:102230001000b000203fb00002003500008009000f
:08224000000000000000060090
:020000040000fa
:102248000200fa000000eb00000f780000172000e1
:1022580001002000ecff07001e0078004200dd00ae
:10226800000f7800100020000080fa00000006002f
:020000040000fa
:020000040005f5
:04570000ffffff00a8
:020000040000fa
:020000040005f5
:04572000ffff000087
:020000040000fa
:020000040005f5
:0457300078ff0000fe
:020000040000fa
:020000040005f5
:04573800bbff0000b3
:020000040000fa
:020000040005f5
:045740009aff0000cc
:020000040000fa
:020000040005f5
:04574800feff000060
:020000040000fa
:020000040005f5
:04575000ffff000057
:020000040000fa
:020000040005f5
:04575800ffff00004f
:020000040000fa
:020000040005f5
:04576000ffff000047
:020000040000fa
:020000040005f5
:04576800ffff00003f
:020000040000fa
:020000040005f5
:04577000ffff000037
:020000040000fa
:020000040005f5
:04577800ffff00002f
:020000040000fa
:020000040005f5
:04578000ffff000027
:020000040000fa
:020000040005f5
:04578800ffff00001f
:00000001FF
